:100000000C94BC070C9403080C9403080C9403088C
:100010000C9403080C9403080C9403080C94030834
:100020000C9403080C9403080C943C220C940F23AA
:100030000C94A9190C9403080C9403080C9403085D
:100040000C9403080C9403080C9403080C94030804
:100050000C9403080C94111A0C9403080C940308D4
:100060000C9403080C9403080C9403080C940308E4
:100070000C9403080C9403080C9403080C940308D4
:100080000C9403080C9403080C9403080C940308C4
:100090000C9403080C9403080C9403080C940308B4
:1000A0000C9403080C9403080C94030829001E0008
:1000B0001F0020002100220023002400250026002C
:1000C00027002D002E002A0046004700480053005C
:1000D0005400550056002B0014001A0008001500AB
:1000E00017001C0018000C00120013002F00300035
:1000F00031004C004D004E005F0060006100570071
:10010000390004001600070009000A000B000D006A
:100110000E000F00330034000000280049004A00A0
:100120004B005C005D005E0000000000E1001D006F
:100130001B000600190005001100100036003700F2
:1001400038000000E100350052002E0059005A002E
:100150005B0000000000E000E300E200000000009F
:1001600000002C0000000000E20001517600E000D9
:10017000500051004F006200000063005800010071
:100180003A003B003C003D003E003F004000410083
:10019000420043004400450001000100010001004D
:1001A00001000100010001000100010052000100F6
:1001B0000100010001000100010001000100010037
:1001C0000100010001000100010001000100010027
:1001D00001000100500051004F000100010001002A
:1001E0000100010001000100010000000100010008
:1001F00001000100010001000100000000000100F9
:1002000001000100010001000100010001000100E6
:1002100001000100000001000100010001000100D7
:1002200001000100000000000100010001000000C9
:1002300000000000010000000000010001000100BA
:1002400001000100010001000100000001000100A7
:100250000100010001000100010001000100010096
:100260000100010001000100010001000100010086
:100270000100010001000100010001000100010076
:100280000100010001000100010001000100010066
:100290000100010001000100010001000100010056
:1002A0000100010001000100010001000100010046
:1002B0000100010001000100010001000000010037
:1002C0000100010001000100010001000000000028
:1002D0000100010001000100010001000100010016
:1002E0000100010001000000010001000100010007
:1002F00001000100010000000000010001000100F8
:1003000000000000000001000000000001000100EA
:1003100001000100010001000100010000000100D6
:1003200001000100010001000100010001000100C5
:1003300001000100010001000100010001000100B5
:1003400001000100010001000100010001000100A5
:100350000100010001000100010001000100010095
:100360000100010001000100010001000100010085
:100370000100010001000100010001000100010075
:100380000100010001000100010001000100000066
:100390000100010001000100010001000100000056
:1003A0000000010001000100010001000100010046
:1003B0000100010001000100000001000100010036
:1003C0000100010001000100000000000100010027
:1003D000010000000000000001000000000001001A
:1003E0000100010001000100010001000100000006
:1003F00001000100010001000100010001000100F5
:1004000001000100010001000100010001000100E4
:1004100001000100010001000100010001000100D4
:1004200001000100010001000100010001000100C4
:1004300001000100010001000100010001000100B4
:1004400001000100010001000100010001000100A4
:100450000100010001000100010001000100010094
:100460000000010001000100010001000100010085
:100470000000000001000100010001000100010076
:100480000100010001000100010000000100010065
:100490000100010001000100010000000000010056
:1004A0000100010000000000000001000000000049
:1004B0000100010001000100010001000100010034
:1004C0000000010001000100010001000100010025
:1004D0000100010001000100010001000100010014
:1004E0000100010001000100010001000100010004
:1004F00001000100010001000100010001000100F4
:1005000001000100010001000100010001000100E3
:1005100001000100010001000100010001000100D3
:1005200001000100010001000100010001000100C3
:1005300001000000010001000100010001000100B4
:1005400001000000000001000100010001000100A5
:100550000100010001000100010001000000010094
:100560000100010001000100010001000000000085
:100570000100010001000000000000000100000077
:100580000000010001000100010001000100010064
:100590000100000001000100010001000100010054
:1005A0000100010001000100010001000100010043
:1005B0000100010001000100010001000100010033
:1005C0000100010001000100010001000100010023
:1005D0000100010001000100010001000100010013
:1005E0000100010001000100010001000100010003
:1005F00001000100010001000100010001000100F3
:1006000001000100000001000100010001000100E3
:1006100001000100000000000100010001000100D4
:1006200001000100010001000100010001000000C3
:1006300001000100010001000100010001000000B3
:1006400000000100010001000000000000000100A6
:100650000000000001000100010001000100010094
:100660000100010000000100010001000100010083
:100670000100010001000100010001000100010072
:100680000100010001000100010001000100010062
:100690000100010001000100010001000100010052
:1006A0000100010001000100010001000100010042
:1006B0000100010001000100010001000100010032
:1006C0000100010001000100010001000100010022
:1006D0000100010001000000010001000100010013
:1006E0000100010001000000000001000100010004
:1006F00001000100010001000100010001000100F2
:1007000000000100010001000100010001000100E2
:1007100000000000010001000100000000000000D6
:1007200001000000000001000100010001000100C3
:1007300001000100010000000100010001000100B2
:1007400001000100010001000100010001000100A1
:100750000100010001000100010001000100010091
:100760000100010001000100010001000100010081
:100770000100010001000100010001000100010071
:100780000100010001000100010001000100010061
:100790000100010001000100010001000100010051
:1007A0000100010001000100000001000100010042
:1007B0000100010001000100000000000100010033
:1007C0000100010001000100010001000100010021
:1007D0000100000001000100010001000100010012
:1007E0000100000000000100010001000000000005
:1007F00000000100000000000100010001000100F4
:1008000001000100010001000000010001000100E1
:1008100001000100010001000100010001000100D0
:1008200001000100010001000100010001000100C0
:1008300001000100010001000100010001000100B0
:1008400001000100010001000100010001000100A0
:100850000100010001000100010001000100010090
:100860000100010001000100010001000100010080
:100870000100010001000100010000000100010071
:100880000100010001000100010000000000010062
:100890000100010001000100010001000100010050
:1008A0000100010000000100010001000100010041
:1008B0000100010000000000010001000100000033
:1008C0000000000001000000000001000100010024
:1008D0000100010001000100010000000100010011
:1008E0000100010001000100010001000100010000
:1008F00001000100010001000100010001000100F0
:1009000001000100010001000100010001000100DF
:1009100001000100010001000100010001000100CF
:1009200001000100010001000100010001000100BF
:1009300001000100010001000100010001000100AF
:1009400001000100010001000100010000000100A0
:100950000100010001000100010001000000000091
:10096000010001000100010001000100010001007F
:100970000100010001000000010001000100010070
:100980000100010001000000000001000100010061
:100990000000000000000100000000000100010054
:1009A0000100010001000100010001000000010040
:1009B000010001000100010001000100010001002F
:1009C000010001000100010001000100010001001F
:1009D000010001000100010001000100010001000F
:1009E00001000100010001000100010001000100FF
:1009F00001000100010001000100010001000100EF
:100A000001000100010001000100010001000100DE
:100A100001000100010001000100010001000000CF
:100A200001000100010001000100010001000000BF
:100A300000000100010001000100010001000100AF
:100A4000010001000100010000000100010001009F
:100A50000100010001000100000000000100010090
:100A60000100000000000000010000000000010083
:100A7000010001000100010001000100010000006F
:100A8000010001000100010001000100010001005E
:100A9000010001000100010001000100010001004E
:100AA000010001000100010001000100010001003E
:100AB000010001000100010001000100010001002E
:100AC000010001000100010001000100010001001E
:100AD000010001000100010001000100010001000E
:100AE00001000100010001000100010001000100FE
:100AF00000000100010001000100010001000100EF
:100B000000000000010001000100010001000100DF
:100B100001000100010001000100000001000100CE
:100B200001000100010001000100000000000100BF
:100B300001000100000000000000010000000000B2
:100B4000010001000100010001000100010001009D
:100B5000000001000100010001000100010001008E
:100B6000010001000100010001000100010001007D
:100B7000010001000100010001000100010001006D
:100B8000010001000100010001000100010001005D
:100B9000010001000100010001000100010001004D
:100BA000010001000100010001000100010001003D
:100BB000010001000100010001000100010001002D
:100BC000010000000100010001000100010001001E
:100BD000010000000000010001000100010001000F
:100BE00001000100010001000100010000000100FE
:100BF00001000100010001000100010000000000EF
:100C000001000100010000000000000001000000E0
:100C100000000100010001000100010001000100CD
:100C200001000000010001000100010001000100BD
:100C300001000100010001000100010001000100AC
:100C4000010001000100010001000100010001009C
:100C5000010001000100010001000100010001008C
:100C6000010001000100010001000100010001007C
:100C7000010001000100010001000100010001006C
:100C8000010001000100010001000100010001005C
:100C9000010001000000010001000100010001004D
:100CA000010001000000000001000100010001003E
:100CB000010001000100010001000100010000002D
:100CC000010001000100010001000100010000001D
:100CD0000000010001000100000000000000010010
:100CE00000000000010001000100010001000100FE
:100CF00001000100000001000100010001000100ED
:100D000001000100010001000100010001000100DB
:100D100001000100010001000100010001000100CB
:100D200001000100010001000100010001000100BB
:100D300001000100010001000100010001000100AB
:100D4000010001000100010001000100010001009B
:100D5000010001000100010001000100010001008B
:100D6000010001000100000001000100010001007C
:100D7000010001000100000000000100010001006D
:100D8000010001000100010001000100010001005B
:100D9000000001000100010001000100010001004C
:100DA0000000000001000100010000000000000040
:100DB000010000000000010001000100010001002D
:100DC00001000100010000000100010012036B009E
:100DD0006500790062006F0061007200640000002D
:100DE000160371006D006B006200750069006C00F5
:100DF00064006500720000000403090409026D002C
:100E0000040100A0FA090400000103010100092106
:100E1000110100012240000705810308000A0904AE
:100E200001000103010200092111010001224D000E
:100E30000705820308000A090402000103000000FC
:100E40000921110100012236000705830308000A69
:100E5000090403000103000000092111010001221F
:100E60003900070584032000011201100100000071
:100E700008EDFE606001000102000105010906A104
:100E800001050719E029E71500250195087501817D
:100E9000020508190129059505750191029501754D
:100EA0000391010507190029F71500250195F8752B
:100EB000018102C005010980A101850216010026F9
:100EC00003001A81002A8300751095018100C00576
:100ED0000C0901A1018503160100269C021A0100DC
:100EE0002A9C02751095018100C005010902A1012B
:100EF0000901A1000509190129051500250195051C
:100F000075018102950175038101050109300931DF
:100F10001581257F95027508810609381581257F81
:100F2000950175088106050C0A38021581257F9503
:100F30000175088106C0C005010906A10105071950
:100F4000E029E715002501950875018102950175D5
:100F5000088101050819012905950575019102957A
:100F600001750391010507190029FF150026FF00EF
:100F7000950675088100C00011241FBECFEFDAE08E
:100F8000DEBFCDBF04B603FE27C0809186029091DC
:100F90008702A0918802B09189028730904BA740C8
:100FA000B04BD1F410928602109287021092880200
:100FB0001092890214BE84B7877F84BF0FB6F8945D
:100FC000A895809160008861809360001092600015
:100FD0000FBEE0E0F8E3099511E0A0E0B1E0E6EA39
:100FE000FCE402C005900D92A234B107D9F722E0CB
:100FF000A2E4B1E001C01D92A638B207E1F70E9459
:101000008B1F0C9451260C94000090E080E0089512
:101010000895089581E00895089581E008950C945D
:101020000A080E9420122FEF84E39CE021508040A8
:101030009040E1F700C000000C94361AFF920F9325
:101040001F93CF93DF938C01FC01C081D1818091EC
:101050009A0181113FC082818823B9F1CE010E949B
:101060008717F82E682FCE010E942D17BE018F2DF5
:101070000E946509EC01B8010E940F08882309F459
:101080004AC0B801CE010E94750B882309F443C001
:10109000C531F0E7DF0718F5C23080E7D80708F060
:1010A0004BC0C115E0E7DE0789F1C130D047D1F16F
:1010B00081E08093440180934501C801DF91CF9185
:1010C0001F910F91FF900C940D08CE010E945C17A8
:1010D000F82ECCCFCE010E948717BE01C9CFCC33EA
:1010E00080E7D80709F4ACC0CD33D04709F7F80141
:1010F0008281882309F4CBC0109245010E94DB193C
:10110000909343018093420180E2A7C0F80182815D
:1011100081110E94110880E0DF91CF911F910F9102
:10112000FF900895F80182818823A9F380914602F7
:10113000816080934602EFCFF8018281882309F411
:10114000BCCF0E943819811102C00E941E190E9452
:10115000551990E09093780280937702FE01E35056
:10116000F047809177028160E231F105C8F4E554DF
:10117000F74F0C940126CD08D908DD08E108E508F1
:10118000E908ED08F108F508F908FD080109050965
:1011900009090D0911091509190980917702826061
:1011A00080937702809177020E9459190E94201241
:1011B000B2CF809177028460F3CF8091770288600C
:1011C000EFCF809177028061EBCF809177028062D0
:1011D000E7CF809177028064E3CF809177028068C7
:1011E000DFCF809177028460EACF809177028E7F93
:1011F000D7CF809177028D7FD3CF809177028B7F7D
:10120000CFCF80917702877FCBCF809177028F7E7F
:10121000C7CF809177028F7DC3CF809177028F7B7C
:10122000BFCF809177028F77BBCF809177028B7F82
:10123000EACF90917702892F97FB87F98058B0CF3A
:10124000F8018281882361F0109244010E94DB1929
:10125000909343018093420182E00E94AA0F5BCFEA
:101260008091440181110FC080914201909143010E
:101270000E94E719883C910530F486E20E947F0EB7
:1012800086E20E945B0F82E00E94B10F44CF809102
:10129000450181110FC080914201909143010E944C
:1012A000E719883C910530F487E20E947F0E87E2BF
:1012B0000E945B0F80E2E8CF0C94C40B0C94C60B29
:1012C0000C940C080C9460090895972F70E025E1A8
:1012D000929F600D711D1124FB0199E6899FE00D1D
:1012E000F11D1124EE0FFF1FE455FF4F85919491DE
:1012F0000895FC01EE0FFF1FE453F24F8591949186
:1013000008950E9465090E94F40A811520E492075D
:1013100008F08DC0811540E3940708F0E8C0803ED6
:10132000910508F071C0803C910508F0CCC0883A66
:10133000910580F4853A910508F0CAC08130910585
:1013400009F46EC020F08430910508F069C090E087
:1013500080E008958D3B9105D0F7883A910509F416
:1013600004C1893A910509F403C18A3A910509F447
:1013700002C18B3A910509F401C18C3A910509F437
:1013800000C18B3B910509F4FFC08C3B910509F42A
:10139000FEC08D3A910509F4FDC0803B910509F42A
:1013A000FCC08E3A910509F4FBC08F3A910509F40F
:1013B000FAC0813B910509F4F9C0823B910509F41B
:1013C000F8C0833B910509F4F7C0843B910509F40B
:1013D000F6C0853B910509F4F5C0863B910509F4FB
:1013E000F4C0873B910509F4F3C0883B910509F4EB
:1013F000F2C0893B910509F4F1C08A3B910509F4DB
:10140000F0C080E094E408958F3F910509F048F41E
:10141000803F910508F067C0883E910508F097CF9E
:101420000895811520E2920708F05FC008958115A4
:1014300043E5940760F5811522E5920708F062C044
:10144000811541E5940708F058C0811520E5920701
:1014500008F450C09C0154E0369527955A95E1F761
:10146000922F9370482F437021E030E002C0220F8A
:10147000331F4A95E2F73C68392B86958695837031
:1014800040E2849FC0011124822B932B0895811583
:1014900045E5940750F4811524E5920708F446C009
:1014A000982F8827846F906A0895811546E59407E0
:1014B00008F450C09C0130569F702115304108F04F
:1014C00046CF90620895805C91090E947909089541
:1014D000853A910509F443C0863A910509F042C066
:1014E00082E890E40895906508959F70EECF992763
:1014F000906C08959F70906A0895982F8827816F47
:10150000906A0895AC014370552721E030E002C095
:10151000220F331F4A95E2F78695869540E2849F15
:10152000C0011124822B932B9C680895AC01437059
:10153000552721E030E002C0220F331F4A95E2F721
:101540008695869540E2849FC0011124822B932BBF
:101550009A680895982F882788279F71B2CF81E8CD
:1015600090E4089583E890E4089582EE94E4089569
:1015700089EE94E408958AEE94E4089585EB94E46A
:10158000089586EB94E4089583EB94E4089584EB46
:1015900094E4089587EB94E408958CEC94E4089522
:1015A0008DEC94E4089583E895E408958AE895E441
:1015B000089582E995E4089584E995E4089581E227
:1015C00096E4089583E296E4089584E296E408950B
:1015D00085E296E4089586E296E4089587E296E42B
:1015E00008958AE296E41CCF8238910549F1B0F45F
:1015F0008133910509F45CC048F48932910509F4FE
:1016000052C08A32910509F458C008958533910576
:1016100009F444C08933910599F00895833E9105FA
:1016200031F138F4803E910591F0823E9105B1F0A0
:101630000895863E910511F1873E910541F1089587
:10164000209177022370C9F080EE90E008952091F8
:10165000770220FF12C089E390E00895209177027D
:1016600022FF0BC024FF2EC090E080E0089520915F
:10167000770222FD2AC024FDF7CF0895209177023A
:1016800023FFFBCF24FDF0CF87EE90E0089520915B
:10169000770223FFF0CF86EE90E008952091770245
:1016A00025FD16C008952091770225FD14C00895E8
:1016B0002091770226FD12C008952091770226FD21
:1016C00010C0089583EE90E0089582EE90E00895B2
:1016D00089E290E0089585E390E008958AE290E041
:1016E000089581E390E0C9CF08950F931F93CF939E
:1016F0008C01FB018281811106C0C1E08C2FCF914A
:101700001F910F910895C0915301C11125C005315A
:10171000104799F70E94740B81E0809353010E9457
:10172000DB1990935201809351011092460110925F
:1017300048011092470110924A01109249011092FB
:101740004C0110924B0110924E0110924D011092DB
:10175000500110924F01D2CF8091510190915201CE
:101760000E94E719883C910540F680914601E82FD8
:10177000F0E0EE0FFF1FE95BFE4F118300838F5FE8
:1017800080934601C0E0BACF0C9408080C94090875
:1017900085B7806885BF85B7806885BFA8E2B1E05E
:1017A00061E070E08D91E82FE295EF70F0E041A1EB
:1017B0008F709B0101C0220F8A95EAF7922F9095B6
:1017C000942391A382A1822B82A381E0AD32B8073A
:1017D00049F7A3E1B1E061E070E08D91E82FE29577
:1017E000EF70F0E041A18F709B0101C0220F8A953C
:1017F000EAF7922F9095942391A382A1822B82A342
:1018000081E0A832B80749F7E8E6F1E0A4E5B1E0E5
:101810008CE791E011921192119211921D921D92FA
:101820001D921D928E179F07A9F70C945C092F92A9
:101830003F924F925F926F927F928F929F92AF9260
:10184000BF92CF92DF92EF92FF920F931F93CF93AD
:10185000DF93CDB7DEB72C970FB6F894DEBF0FBE7F
:10186000CDBF84E5882E81E0982E28E231E03A83CE
:10187000298398868F8222242394312CC12CD12C49
:101880007601C394AA24A394AF81B8854D905D904E
:101890006D907C901397FD01108211821282138249
:1018A000A981BA818D91BA83A983E82FE295EF705F
:1018B000F0E091A18F70910102C0220F331F8A9531
:1018C000E2F73C832B83822F892B81A382A1B22E46
:1018D000B0948B2182A330EA3A95F1F743E151E0CD
:1018E0005E834D8390E080E0AD81BE813D91BE83FB
:1018F000AD83A32FA295AF70B0E090960C91AF810D
:10190000B8854D915D916D917C9149875A876B8720
:101910007C873F70A10102C0440F551F3A95E2F742
:101920009A01202309F081C0B701A601082E04C046
:10193000440F551F661F771F0A94D2F78A019B0137
:1019400049855A856B857C85402B512B622B732BE7
:10195000AF81B8854D935D936D937C9313970196FA
:101960008531910509F0C0CF81A1B822B1A282A131
:10197000BB818B2B82A3EF81F88580819181A2812D
:10198000B381481659066A067B0641F0A0927C0195
:101990000E94DB1990937E0180937D012F81388511
:1019A0002C5F3F4F38872F8349815A814D525140D8
:1019B00009F06ACF80917C018823D9F080917D0164
:1019C00090917E010E94E719069798F0E8E6F1E011
:1019D00088E691E0D4014D915D916D917D914D012D
:1019E00041935193619371938A179B0799F71092D2
:1019F0007C010E945E0981E02C960FB6F894DEBF50
:101A00000FBECDBFDF91CF911F910F91FF90EF904F
:101A1000DF90CF90BF90AF909F908F907F906F900E
:101A20005F904F903F902F90089500E010E0980154
:101A300087CF94E0899FF0011124E859FE4F60811F
:101A40007181828193810895089590938401809398
:101A500083010895E0918301F0918401309721F092
:101A60000190F081E02D099480E00895E0918301D8
:101A7000F0918401309721F00280F381E02D0994E8
:101A80000895E0918301F0918401309721F0048062
:101A9000F581E02D09940895209181013091820112
:101AA0002817390771F09093820180938101E091AA
:101AB0008301F0918401309721F00680F781E02DB9
:101AC0000994089520917F013091800128173907EA
:101AD00071F09093800180937F01E0918301F091F8
:101AE0008401309721F00084F185E02D0994089558
:101AF00008950C94780D0E94D2190E94C80B0C9482
:101B0000A21A4F925F926F927F928F929F92AF92A2
:101B1000BF92DF92EF92FF920F931F93CF93DF93C9
:101B2000CDB7DEB72A970FB6F894DEBF0FBECDBF94
:101B30000E94170C26E8E22E21E0F22E10E000E0D1
:101B4000D02E802F0E94190D4B015C01F7014190AE
:101B50005190619071907F01481459046A047B048C
:101B600009F476C08091460281FD0E94240D90E028
:101B700080E0482459246A247B24B301A201082E62
:101B800004C076956795579547950A94D2F740FF1C
:101B90005AC08E83DF82412C512C3201439404C001
:101BA000440C551C661C771C8A95D2F7842095201E
:101BB000A620B72081E089288A288B2809F480E0B4
:101BC00088870E94DB198160782F9A8789874E81E8
:101BD0005F8168858A850E94550E000F111F000FD6
:101BE000111FF801EA57FE4F80819181A281B381D4
:101BF00084259525A625B72580839183A283B38369
:101C00000E94251D0E942A0D909185018917B9F126
:101C10000E942A0D809385012A960FB6F894DEBFA4
:101C20000FBECDBFDF91CF911F910F91FF90EF902D
:101C3000DF90BF90AF909F908F907F906F905F905C
:101C40004F900C94620901968531910509F095CF6A
:101C50000F5F1F4F0530110509F072CF8FEF898399
:101C60008A831B820E94DB198160782F9D838C837D
:101C700049815A816B818D810E94550EC1CF2A9670
:101C80000FB6F894DEBF0FBECDBFDF91CF911F918D
:101C90000F91FF90EF90DF90BF90AF909F908F904B
:101CA0007F906F905F904F900895CF93DF93CDB763
:101CB000DEB72B970FB6F894DEBF0FBECDBF4F83B4
:101CC000588769877A878B871E821D8285E0FE018F
:101CD0003796DE01119601900D928A95E1F74981C0
:101CE0005A816B817C818D819E812B960FB6F894F1
:101CF000DEBF0FBECDBFDF91CF910C94D2148823ED
:101D000009F4D8C0823871F40E942A0D81FDD2C036
:101D100089E30E9427180E94EF1889E30E94641843
:101D20000C94EF18833859F40E942A0D80FDC2C02C
:101D300083E50E9427180E94EF1883E5EFCF8438CF
:101D400059F40E942A0D82FDB5C087E40E9427182D
:101D50000E94EF1887E4E2CF9CEF980F913A18F4B5
:101D60000E942718DDCF90E2980F983050F48770CA
:101D700091E001C0990F8A95EAF7892F0E94A61871
:101D8000CFCF9BE5980F933070F4853A31F0863AC7
:101D900039F083E890E00C944C0D81E890E0FBCFA3
:101DA00082E890E0F8CF98E5980F953108F082C06E
:101DB000883A09F440C0893A09F440C08A3A09F4E3
:101DC00040C08B3A09F440C08C3A09F440C08B3BC8
:101DD00009F440C08C3B09F440C08D3A09F440C07E
:101DE000803B09F440C08E3A09F440C08F3A09F4B0
:101DF00040C0813B09F440C0823B09F440C0833BB2
:101E000009F440C0843B09F440C0853B09F440C05C
:101E1000863B09F440C0873B09F440C0883B09F485
:101E200040C0893B09F440C08A3B09F440C090E0BF
:101E300080E00C94620D82EE90E0FBCF89EE90E0A2
:101E4000F8CF8AEE90E0F5CF85EB90E0F2CF86EB0D
:101E500090E0EFCF83EB90E0ECCF84EB90E0E9CF24
:101E600087EB90E0E6CF8CEC90E0E3CF8DEC90E058
:101E7000E0CF83E891E0DDCF8AE891E0DACF82E934
:101E800091E0D7CF84E991E0D4CF81E292E0D1CF45
:101E900083E292E0CECF84E292E0CBCF85E292E083
:101EA000C8CF86E292E0C5CF87E292E0C2CF8AE255
:101EB00092E0BFCF0895882309F44BC0823871F4B3
:101EC0000E942A0D81FF45C089E30E9427180E94C5
:101ED000EF1889E30E9464180C94EF18833859F4C2
:101EE0000E942A0D80FF35C083E50E9427180E94BA
:101EF000EF1883E5EFCF843859F40E942A0D82FF52
:101F000028C087E40E9427180E94EF1887E4E2CFD8
:101F10009CEF980F913AF0F290E2980F983050F4BD
:101F2000877091E001C0990F8A95EAF7892F0E9486
:101F3000AC18D2CF9BE5980F933020F490E080E06E
:101F40000C944C0D885A853120F490E080E00C947C
:101F5000620D0895882321F00E94A6180C94EF18B2
:101F60000895882321F00E94AC180C94EF1808956E
:101F70008F929F92AF92BF92DF92EF92FF920F9358
:101F80001F93CF93DF937C01D62FC72FFC010581D0
:101F900002950F70128111110E94C5180E9420181D
:101FA000D82E882371F0112321F180E28D0F883023
:101FB00000F182E00E940A180E94201891E0D82EB9
:101FC000D926EC2FE295EF70F0E0E751F04F0C943A
:101FD0000126FB0FFB0F4B104B108D10A910281082
:101FE0002810B41028104C114C11BF1128102810C3
:101FF000C811D12CE6CF0C2F0F70C07F11F00295C5
:10200000007F1123A9F0002359F080E28D0F883062
:1020100010F0D11109C0802F0E94A6180E94EF185D
:102020008D2F0E947F0E14C0802F0E94B718F6CF0C
:102030008D2F0E945B0F002359F080E28D0F8830B6
:1020400010F0D11124C0802F0E94AC180E94EF180C
:10205000DD2009F4A4C10E94FD1780FDA0C1F70195
:1020600012820E94F7170E947116C7010E94DB11AD
:102070000E94F717DF91CF911F910F91FF90EF9082
:10208000DF90BF90AF909F908F900C949216802F0E
:102090000E94BD18DBCFFC2FFF70BF2EC07FC03267
:1020A00019F0B29480EFB822DD2369F0D13029F124
:1020B000112369F1002359F0F701858180FFB0CF2A
:1020C0008F70858304C0112361F0011104C08B2D32
:1020D0000E94AA0FBDCF8B2D0130D1F70E94D918D5
:1020E000B7CF011106C00E94DC188B2D0E94B10FE2
:1020F000AFCF013009F4ACCFF6CF112321F0063079
:1021000008F0A6CFE4CF053008F0A2CFEECF002331
:1021100061F38D2F0E945B0F9BCF8C2F8695869548
:10212000837069F0813009F093CF8D2F9C2F9370CD
:10213000111102C090E080E00E94620D89CF8D2FC6
:102140009C2F9370111102C090E080E00E944C0D12
:102150007FCF8D2F112329F00E942E1C0E941A1D63
:1021600077CF0E94961CFACF8C2F837009F047C05E
:1021700011116ECF2D2F229526952770220F220F39
:102180006D2F6F70862E912CB12CA12C022E04C0C5
:10219000880C991CAA1CBB1C0A94D2F760E070E062
:1021A000CB01D4FF0FC06FE070E080E090E004C08E
:1021B000660F771F881F991F2A95D2F76095709533
:1021C00080959095C695C695C370C23051F080F445
:1021D000682979298A299B29C13071F00E941A1631
:1021E00037CF682979298A299B290E94361630CF52
:1021F0000E941A16C501B4010E94FE1529CF8695CA
:10220000112311F08C2F8170882309F421CF2D2FF9
:10221000229526952770220F220F6D2F6F70862E24
:10222000912CB12CA12C022E04C0880C991CAA1C44
:10223000BB1C0A94D2F760E070E0CB01D4FF0FC062
:102240006FE070E080E090E004C0660F771F881FA9
:10225000991F2A95D2F76095709580959095C695AF
:10226000C695C370C23051F080F4682979298A2953
:102270009B29C13071F00E94F416EACE68297929B1
:102280008A299B290E941017E3CE0E94F416C501EB
:10229000B4010E94D816DCCEE0E2ED0FE53108F083
:1022A00062C0F0E0EA5AFE4E0C9401266B116B11ED
:1022B0006B116B116B116B116B116B116B116B113E
:1022C0006B116B116B116B116B116B117811861106
:1022D0008D1194119E11DF708C2F8F71112321F0BD
:1022E0000E9471168D2FF4CE0E9492168D2FFECE75
:1022F000112341F0053008F0ABCE8C2F8F710E9476
:10230000B716A6CE063008F0A3CEF7CF8C2F8F716C
:10231000112339F00E9471169BCE8C2F8F711123DF
:10232000C9F30E94921694CE112329F08C2F8F713D
:102330000E945C168DCE0E9452168ACE112349F05F
:10234000CF718C2F0E94711663E08C2F0E940118B0
:102350007FCE81E00E940A18023008F479CE82E034
:102360000E940A1875CE112329F0011159CE8C2F25
:102370008F71D0CF0111CDCE8C2F8F71D2CF4C2F3A
:102380004F706D2FC7010E9405080E947B1560CE1B
:102390004C2F4F706D2FC7010E94640959CEDF91F9
:1023A000CF911F910F91FF90EF90DF90BF90AF9072
:1023B0009F908F9008950F931F93CF93DF93EC011D
:1023C000988189812B813C81232B39F08F3F19F42F
:1023D00081E09F3F19F080E001C081E080FD17C0DF
:1023E000CE010E941E08882391F0688179818A813C
:1023F0000E94D3178C010E942C170E94F315B8017C
:10240000CE01DF91CF911F910F910C94B80FDF9106
:10241000CF911F910F9108950E94C5180E94D61860
:102420000E9498180E94EF180E94C71D0E941A1D52
:1024300090E080E00E944C0D90E080E00C94620DF2
:102440000E94B4180C940C120E94C917E92FE2954F
:10245000EF70E250EE30E0F4F0E0EF5CFD4E0C94F3
:1024600001263F123F12481248124A1248124812DF
:1024700048123F123F124F12481248124F12803F2B
:1024800019F020F4803E20F481E00895843FE1F3C8
:1024900080E00895803EC0F3813FD1F7F5CF93FBF4
:1024A000882780F90895CF93DF9300D000D01F9242
:1024B000CDB7DEB70F900F900F900F900F90DF9178
:1024C000CF910895CF93DF9300D000D000D0CDB747
:1024D000DEB726960FB6F894DEBF0FBECDBFDF91F4
:1024E000CF9108951F93CF93DF93C0919B0116E086
:1024F00080919C018C1304C0DF91CF911F910895AE
:10250000D0E01C9FF0011D9FF00D1124E356FE4FFB
:102510004081518162817381848195810E94621220
:102520002196C770E5CF4091CD015091CE016091C9
:10253000CF017091D0018091D1019091D2010C9482
:1025400062121F93CF93DF938091D201807FD1F4E9
:102550008091CF018823B1F080919B01D0919C01A3
:10256000B091CD01C091CE014091D0015091D101E7
:10257000A1E0BF3F09F0A0E0BA016095709516E0B8
:10258000D81304C0DF91CF911F91089521E0411528
:10259000510521F02A2FCF3F09F020E090E020FDE7
:1025A00038C0189FF001199FF00D1124E356FE4F1B
:1025B00021812C132EC020812B132BC022812111AD
:1025C00028C0238134812417350700F1241B350BE3
:1025D000283C3105F0F42091D2012F702061209326
:1025E000D20126E0289FF001299FF00D1124EE551D
:1025F000FE4F80818F70806180838DEC91E00E941E
:10260000DB11DF91CF911F910C947212260F371FAF
:10261000DFCF01968770B4CFAF92BF92CF92DF9297
:10262000EF92FF920F931F93CF93DF93CDB7DEB757
:1026300061970FB6F894DEBF0FBECDBF8C0185E069
:10264000F801DE011D9601900D928A95E1F7D801FF
:102650004C9111965C9111971296EC903091CD01AE
:102660006091CE018091D0019091D10121E000973D
:1026700031F06F3F19F421E03F3F09F020E0B22F25
:10268000B170BB2E20FD80C1F801C380D480A09022
:10269000CF01AA2009F427C1C816D906D0F1D60166
:1026A000A81BB90BCD01FF24F394883C910508F0D9
:1026B000F12C8091D201982F907FFF2009F4CAC09D
:1026C000911187C0FE2C651329C0341327C0E11077
:1026D00025C08F7080618093D2010E9493128DEC8F
:1026E00091E00E94DB118091D201F80185838F2D4A
:1026F00061960FB6F894DEBF0FBECDBFDF91CF91CC
:102700001F910F91FF90EF90DF90CF90BF90AF900F
:102710000895809590958C0D9D1DC5CF81E0CD28A5
:1027200031F05F3F19F481E04F3F09F080E080FD18
:1027300024C081E08E25F82FF170DF2E80FF3FC08E
:1027400080919B0120919C0136E0821318C04D8737
:102750005E878D859E850E94C917292F22952F702F
:10276000223008F1243030F59F7009F1D801159618
:102770009C91907FE1F4FB2CBACF80E0DCCF90E01D
:10278000389FF001399FF00D1124E356FE4F61810F
:10279000561306C06081461303C062816E110FC0DC
:1027A00001968770D2CF9F7011F0882321F3805E4D
:1027B000883008F3C8010E94DB11BD2CDCCFEE206D
:1027C00009F495CF8091D20181608093D201F12CE0
:1027D0008ECF651312C0341310C0E1100EC0F80183
:1027E0008583C8010E94DB1186E0F801ADECB1E001
:1027F00001900D928A95E1F741C04D875E878D85E6
:102800009E850E942412882309F4C8C0EE2009F492
:10281000C5C08091D201803270F02091CD013091FD
:10282000CE0138872F831986DB86CA868C87CE0136
:1028300007960E94DB1186E0F801ADECB1E0019053
:102840000D928A95E1F70E94A1120E949312FF2433
:10285000F3944DCF911115C07C2DD98AC88A6E2D65
:1028600089890E9453128DEC91E00E94DB1186E071
:10287000EDECF1E0DF011D928A95E9F70E949312D9
:1028800036CF651312C0341310C0E1100EC0F8012A
:102890008583C8010E94DB11EDECF1E086E0DF01E9
:1028A0001D928A95E9F7FA2C22CF4D875E878D8598
:1028B0009E850E942412882309F470C0EE2009F43A
:1028C0006DC08091D201803208F4B5CF2091CD0146
:1028D0003091CE013A8329831B82DD82CC828E83A4
:1028E000CE010196A6CFC816D90638F1F601E81B2D
:1028F000F90BCF01F12C883C910508F03DC0FE2C6E
:10290000EE2009F44BC0651326C0341324C0809117
:10291000D20180FD17C0982F907FA1F0D8011596A5
:102920008C931597903F09F45CCF982F907F905F20
:102930008F70892B15968C9354CF809590958C0D24
:102940009D1DD8CF86E0F801ADECB1E001900D926D
:102950008A95E1F7CCCE4D875E878D859E850E9456
:102960002412811168CF8091D20181608093D201BD
:10297000C8010E94DB11BBCE7C2DD98AC88A6E2D7E
:1029800089890E94531273CFEE2041F04D875E87F4
:102990008D859E850E94241281114DCFC8010E9411
:1029A000DB1155CF1F93CF93DF93CDB7DEB72C97B5
:1029B0000FB6F894DEBF0FBECDBF4F83588769872F
:1029C0007A878B879C87CE0107960E940C138823F9
:1029D00009F442C09F8188852A853B85232B39F0E5
:1029E0008F3F19F481E09F3F19F080E001C081E042
:1029F00080FD08C04F81588569857A858B859C85C7
:102A00000E94621216E080919B0190919C018917AF
:102A100009F467C0819FC001112483569E4F0E9414
:102A20000C13882309F45DC0E0919B011E9FF00107
:102A30001124E356FE4F408151816281738184816C
:102A400095810E94621280919B0190E001968770AF
:102A5000992780939B01D7CF86E0FE013796DE0150
:102A6000119601900D928A95E1F79F8188852A85BC
:102A70003B85232B39F08F3F19F481E09F3F19F0FC
:102A800080E001C081E080FDBDCF20919C0130E05D
:102A9000C90101968770992740919B014817190633
:102AA00099F096E0929FD001939FB00D1124A35608
:102AB000BE4FFE01319601900D929A95E1F78093F9
:102AC0009C010E9472129ECF0E94201210929C01C3
:102AD00010929B0186E0EDECF1E0DF011D928A95FA
:102AE000E9F72C960FB6F894DEBF0FBECDBFDF918D
:102AF000CF911F910895EF92FF920F931F93CF9361
:102B0000DF938C01892B81F0F12CEE24E394E80112
:102B10002196F8018491843770F4843008F05FC006
:102B20008130B1F08230A1F1DF91CF911F910F91EF
:102B3000FF90EF900895853709F44CC008F43DC02C
:102B40009CE7980F903780F78F770E945B0F49C002
:102B50000E5F1F4FFE01849190E2980F983060F451
:102B60008770FE2D01C0FF0F8A95EAF78F2F0E9414
:102B7000C8180E94EF1802C00E947F0E8F2D81504E
:102B800030F2EFE9FFE03197F1F700C00000F7CF36
:102B90000E5F1F4FFE01849190E2980F983050F421
:102BA0008770FE2D01C0FF0F8A95EAF78F2F0E94D4
:102BB000CE18DFCF0E945B0FE1CF0E5F1F4FFE01EB
:102BC000C491C150D8F28FE99FE00197F1F700C09E
:102BD0000000F7CF0E5F1F4FFE01F490CFCF0E9491
:102BE0007F0E8E01CBCF089560931D0270931E025D
:102BF00080931F02909320020C940C120F931F934A
:102C000000911D0210911E0220911F02309120029E
:102C1000DC01CB01802B912BA22BB32B80931D02C7
:102C200090931E02A0931F02B09320021F910F9158
:102C30000C940C120F931F9300911D0210911E0211
:102C400020911F0230912002DC01CB0180239123CF
:102C5000A223B32380931D0290931E02A0931F0210
:102C6000B09320021F910F910C940C120F931F939D
:102C700000911D0210911E0220911F02309120022E
:102C8000DC01CB0180279127A227B32780931D0267
:102C900090931E02A0931F02B09320021F910F91E8
:102CA0000C940C121092190210921A0210921B022C
:102CB00010921C020C940C1241E050E060E070E0B5
:102CC00004C0440F551F661F771F8A95D2F74093A3
:102CD000190250931A0260931B0270931C020C9409
:102CE0000C1241E050E060E070E004C0440F551F5A
:102CF000661F771F8A95D2F78091190290911A0268
:102D0000A0911B02B0911C02842B952BA62BB72BF4
:102D10008093190290931A02A0931B02B0931C0295
:102D20000C940C1241E050E060E070E004C0440FED
:102D3000551F661F771F8A95D2F74095509560956D
:102D400070958091190290911A02A0911B02B09186
:102D50001C0284239523A623B72380931902909302
:102D60001A02A0931B02B0931C020C940C1241E0B7
:102D700050E060E070E004C0440F551F661F771FED
:102D80008A95D2F78091190290911A02A0911B02A4
:102D9000B0911C0284279527A627B7278093190294
:102DA00090931A02A0931B02B0931C020C940C1275
:102DB0000F931F930091190210911A0220911B0288
:102DC00030911C02DC01CB01802B912BA22BB32B69
:102DD0008093190290931A02A0931B02B0931C02D5
:102DE0001F910F910C940C120F931F9300911902D5
:102DF00010911A0220911B0230911C02DC01CB01C0
:102E000080239123A223B3238093190290931A0263
:102E1000A0931B02B0931C021F910F910C940C12F3
:102E20000F931F930091190210911A0220911B0217
:102E300030911C02DC01CB0180279127A227B32708
:102E40008093190290931A02A0931B02B0931C0264
:102E50001F910F910C940C12089525E1929F800D03
:102E60001124982F977071E001C0770F9A95EAF7B7
:102E700086958695869525E0829FC001112450E0B5
:102E800040E0A62FB0E0FC01E40FF51FED52FE4F2D
:102E900060819D01042E02C0369527950A94E2F7C1
:102EA0002170219526272723262720834F5F5F4FF8
:102EB0004530510541F7089525E1929F800D112479
:102EC000982F977086958695869525E0829FA0011C
:102ED000112470E060E080E0FA01E60FF71FED5288
:102EE000FE4F208130E0092E02C0369527950A94C6
:102EF000E2F721703327062E01C0220F0A94EAF769
:102F0000822B6F5F7F4F6530710531F70895BF9257
:102F1000CF92DF92EF92FF920F931F93CF93DF93A5
:102F20008C01C0901902D0901A02E0901B02F09020
:102F30001C0280911D0290911E02A0911F02B0916F
:102F40002002C82AD92AEA2AFB2ACFE1D0E0BC2EE7
:102F5000D701C6010C2E04C0B695A7959795879505
:102F60000A94D2F780FD0EC0219788F7B12C8B2DE3
:102F7000DF91CF911F910F91FF90EF90DF90CF9055
:102F8000BF900895B8018C2F0E948109019761F3C9
:102F9000EECFCF93DF93EC010E948717BE01DF9144
:102FA000CF910C9481091F93CF93DF93EB01909104
:102FB0009A01992331F0CB01DF91CF911F910C94AD
:102FC000C917882379F0CB010E948717182F682F23
:102FD000CE010E942D17BE01812FDF91CF911F914D
:102FE0000C948109CB010E945C17182FF4CF8091BB
:102FF0002102859585958595089580912102877098
:10300000089598E0899F90011124622B609321021A
:103010000C9471169091210280958923809321024E
:10302000282F277061F4282F082E000C330B9217DD
:10303000130629F08595859585950C94921608952B
:1030400090912102977081E009F480E008959091B9
:1030500012019923E1F09091770297FF18C0E82FB1
:10306000E695E695E695EF3139F120910001309132
:103070000101E20FF32FF11D877021E030E001C064
:10308000220F8A95EAF78181822B8183089520910E
:10309000000130910101F90132969FEF40E051911A
:1030A000851751F09F3F19F4511101C0942F4F5FC4
:1030B0004E31A9F79F3F09F40895290F311D97FD5F
:1030C0003A95F90182830895909112019923F1F0C4
:1030D0009091770297FF1AC0E82FE695E695E6955E
:1030E000EF3129F12091000130910101E20FF32F1E
:1030F000F11D282F277081E090E001C0880F2A95EC
:10310000EAF78095918189238183089520910001B8
:1031100030910101F9013296205E3F4F9191891360
:1031200003C0DF0111971C92E217F307B9F7089566
:1031300081E090E0E0910001F0910101E80FF91FBA
:103140001082019680329105A9F708959091450269
:10315000892B809345020895982F90958091450280
:103160008923809345020895109245020895909115
:103170004402892B809344020895982F9095809162
:1031800044028923809344020895109244020895D2
:1031900090914302892B809343020895982F909534
:1031A0008091430289238093430208951092430241
:1031B000089580932202089510922202089520918A
:1031C000000130910101F9013196205E3F4F80E00E
:1031D000919191118F5FE217F307D1F70895E09174
:1031E0000001F0910101809145028083E09100018E
:1031F000F0910101808190914402892B8083E091BC
:103200000001F0910101808190914302892B80831C
:1032100090912202992361F0E0910001F091010167
:103220008081892B80830E94DF18811110922202F5
:1032300080910001909101010C94360D6DEE7EEFAE
:1032400090E080E00E943B2660E082E090E00E94F7
:10325000292660E083E090E00E94292660E084E077
:1032600090E00E94292660E085E090E00C942926F9
:1032700090E080E00E94232621E08D3E9E4F09F0E1
:1032800020E0822F089582E090E00C941B26682FA6
:1032900082E090E00C94292683E090E00C941B26B9
:1032A000682F83E090E00C94292684E090E00C9451
:1032B0001B26682F84E090E00C94292680917D02E3
:1032C000843039F11092470288E190E020E40FB693
:1032D000F894A895809360000FBE2093600080E072
:1032E0000E94620983B7817F846083BF83B7816056
:1032F00083BF7894889583B78E7F83BF0FB6F89489
:10330000A8958091600088618093600010926000B1
:103310000FBE089508950895CF930E948A190E94C0
:10332000170C0E948B19C0E08C2F0E94190D672B7F
:10333000682B692B31F4CF5FC530B1F780E0CF91B6
:10334000089581E0FCCF0E9420120E942A0D0C9467
:1033500062091F920F920FB60F9211248F939F93C1
:10336000AF93BF9380914702811113C08091730284
:1033700090917402A0917502B09176024196A11DC0
:10338000B11D8093730290937402A0937502B09361
:103390007602BF91AF919F918F910F900FBE0F90CA
:1033A0001F90189582E084BD93E095BD9AEF97BD7C
:1033B00080936E0008952FB7F894809173029091D6
:1033C0007402A0917502B09176022FBF0895CF923A
:1033D000DF92EF92FF920F931F932FB7F8944091D3
:1033E00073025091740260917502709176022FBF42
:1033F0006A017B01EE24FF248C0130E020E0C0163E
:10340000D106E206F30650F0481B590BCA011F9182
:103410000F91FF90EF90DF90CF90089541505109A8
:10342000F3CF1F920F920FB60F9211248F939F9399
:10343000AF93BF938091730290917402A091750233
:10344000B09176020196A11DB11D809373029093F5
:103450007402A0937502B0937602BF91AF919F91D1
:103460008F910F900FBE0F901F9018950E94C12151
:10347000F8942FEF87EA91E6215080409040E1F7E1
:1034800000C0000087E090EBDC01809386029093FF
:103490008702A0938802B093890288E19CE00FB66E
:1034A000F894A895809360000FBE90936000FFCFC2
:1034B0008F929F92AF92BF92EF92FF920F931F93C2
:1034C000CF93C0E0E82EF12C8C2F0E94190D4B01F8
:1034D0005C0110E000E0D501C401002E04C0B695E7
:1034E000A795979587950A94D2F780FD13C00F5F33
:1034F0001F4F0531110579F7CF5FC53029F780E0FF
:10350000CF911F910F91FF90EF90BF90AF909F9040
:103510008F900895602F7C2F80E00E946509E81647
:10352000F90629F781E0ECCFCF93C82F8CE20E94F7
:10353000581A882321F08C2FCF910C94581A80E0D0
:10354000CF910895CF930E943819811102C00E9433
:103550001E19C5E608C00E94170C8FE39CE901976D
:10356000F1F700C00000C150B1F789E20E94941A3F
:103570008111EFC08AE20E94941A81110E941E19E3
:1035800085E00E94941A81110E94361A0E94431904
:103590008093460287E00E94941A882371F08BE1A1
:1035A0000E94941A882309F4B1C090914602892F91
:1035B0008D7F91FF826080934602809146020E9437
:1035C00047190E94551990E09093780280937702F2
:1035D00080EE0E94941A882341F090917702892FFF
:1035E0008E7F90FF81608093770289E30E94941A16
:1035F000882341F090917702892F8D7F91FF82601F
:103600008093770282EE0E94941A882341F0909171
:103610007702892F8B7F92FF84608093770286EEFA
:103620000E94941A882341F090917702892F877F16
:1036300093FF88608093770283EE0E94941A882318
:1036400041F090917702892F8F7E94FF8061809363
:10365000770285E30E94941A882341F090917702C3
:10366000892F8F7D95FF80628093770281E30E948E
:10367000941A882341F090917702892F8F7B96FFCF
:1036800080648093770281E10E94941A882341F03C
:1036900090917702892F97FB87F980588093770262
:1036A000809177020E94591987E20E94941AC82FCC
:1036B0008EE10E94941A8111C2608FE10E94941AD7
:1036C0008111C46080E20E94941A8111C86081E275
:1036D0000E94941A8111C06182E20E94941A8111A1
:1036E000C06283E20E94941A8111C06484E20E9445
:1036F000941A882341F1C0688C2F0E9450196C2FB6
:1037000070E090E080E0CF910C94F4158EE00E9480
:10371000941A882339F090914602892F8B7F92FF6B
:10372000846049CF80E10E94941A909146028823D8
:1037300029F0892F877F93FF88603DCF892F8E7F67
:1037400090FF816038CFC111D7CF0E944C19682FEC
:10375000D7CFCF91089580914A0280FF12C0609127
:10376000050185E0689FB0011124759567957595F1
:10377000679560387105A8F561157105A1F1862F6F
:10378000089581FF09C06091050185E0689FB0013F
:10379000112475956795EDCF82FF07C060910501F3
:1037A00085E0689FB0011124E4CF20914B022223D1
:1037B000A9F0909104016091050185E0689FB00136
:1037C00011242917B0F6269FA001279F500D112420
:1037D000692F70E0CA010E94ED25CBCF65E070E053
:1037E000CECF8FE7089581E0089580914A0280FF4F
:1037F0000CC06091030170E07595679575956795AC
:103800006115710549F1862F089581FF06C0609109
:10381000030170E075956795F3CF6091030182FD18
:103820000BC090914B029923A1F06091020180910D
:103830000301961738F0682F70E06038710500F3C7
:103840008FE70895899FC001112470E00E94ED2543
:10385000F4CF61E070E0D7CF81E00895803F31F48C
:103860000E94AB1B819580934E020895813F19F40D
:103870000E94AB1BF8CF823F31F40E94AB1B8195B5
:1038800080934D020895833F19F40E94AB1BF8CF3B
:10389000893F29F40E94F51B80934F0208958A3FC7
:1038A00021F40E94F51B8195F7CF8B3F31F40E94E4
:1038B000F51B81958093500208958C3F19F40E9466
:1038C000F51BF8CF843F31F480914C0281608093E6
:1038D0004C020895853F21F480914C028260F7CF1D
:1038E000863F21F480914C028460F1CF873F21F420
:1038F00080914C028860EBCF883F21F480914C028C
:103900008061E5CF8D3F31F480914A0281608093E0
:103910004A0208958E3F21F480914A028260F7CFD7
:103920008F3FB9F780914A028460F1CF803FC1F4A4
:1039300080914E0287FD10924E0280914D028111BE
:103940000EC080914E0281110AC080914F028111F8
:1039500006C080915002811102C010924B0208955E
:10396000813F29F480914E0218162CF3E6CF9091F6
:103970004D02823F29F497FFE0CF10924D02DDCF38
:10398000833F19F41916CCF3D8CF893F39F48091CD
:103990004F02181694F610924F02CFCF8A3F29F4A7
:1039A00080914F0287FFC9CFF6CF8B3F39F48091CA
:1039B000500287FFC2CF10925002BFCF8C3F29F434
:1039C000809150021816BCF3B8CF843F31F4809137
:1039D0004C028E7F80934C02B0CF853F21F48091C2
:1039E0004C028D7FF7CF863F21F480914C028B7F74
:1039F000F1CF873F21F480914C02877FEBCF883F46
:103A000021F480914C028F7EE5CF8D3F31F480917F
:103A10004A028E7F80934A0290CF8E3F21F480919C
:103A20004A028D7FF7CF8F3F09F087CF80914A02FE
:103A30008B7FF0CF8CE492E00E94410D0E94DB1955
:103A4000909349028093480208951F93CF93DF9388
:103A500080914802909149020E94E719AC0190912F
:103A60004B022091060130E0911106C02091070120
:103A70008AE0289F900111244217530780F080911B
:103A80004D02C0914E0210914F02D091500281110F
:103A90000AC0C11178C0111176C0D11174C0DF9174
:103AA000CF911F9108959F3F19F09F5F90934B0214
:103AB000181624F40E94AB1B80934D0280914D0296
:103AC00087FF05C00E94AB1B819580934D021C1699
:103AD00024F40E94AB1B80934E0280914E0287FF1C
:103AE00005C00E94AB1B819580934E0260914D02F0
:103AF000662331F1C0914E02CC2311F1062E000C49
:103B0000770B880B990B0E94F42423E333E343E300
:103B10005FE30E9458250E94BC2460934D026C2FE5
:103B2000CC0F770B880B990B0E94F42423E333E32B
:103B300043E35FE30E9458250E94BC2460934E0239
:103B4000111624F40E94F51B80934F0280914F02BE
:103B500087FF05C00E94F51B819580934F021D16BB
:103B600024F40E94F51B809350028091500287FF3D
:103B700005C00E94F51B819580935002DF91CF9183
:103B80001F910C941A1D9F3F09F08FCFA0CF85E0A5
:103B9000ECE4F2E0DF011D928A95E9F710924B0206
:103BA00010924A020895809171020895CF93DF9395
:103BB00000D01F92CDB7DEB79C0180917D0284308A
:103BC00019F593E099833B832A839093E9008FEF63
:103BD0009091E800815095FD06C095ED9A95F1F71A
:103BE00000008111F5CF8091E80085FF0DC050E005
:103BF00040E063E070E0CE0101960E9431208091A8
:103C0000E8008E778093E8000F900F900F90DF917F
:103C1000CF910895CF93DF9300D01F92CDB7DEB739
:103C200020917D02243031F522E0298380589109CA
:103C30009B838A8383E08093E9008FEF9091E80073
:103C4000815095FD06C095ED9A95F1F70000811120
:103C5000F5CF8091E80085FF0DC050E040E063E0C3
:103C600070E0CE0101960E9431208091E8008E77AD
:103C70008093E8000F900F900F90DF91CF910895FF
:103C80009C0180917D028430F9F482E08093E90008
:103C90009FEF8091E800915085FD06C085ED8A95E3
:103CA000F1F700009111F5CF8091E80085FF0CC07D
:103CB00050E040E065E070E0C9010E943120809151
:103CC000E8008E778093E8000895CF93DF93EC01AE
:103CD00080917D028430F1F4909112019923E9F0F2
:103CE0009091770297FF19C08093E9008FEF909130
:103CF000E800815095FD06C095E19A95F1F7000026
:103D00008111F5CF8091E80050E040E060E270E082
:103D100085FD1AC0DF91CF91089581E08093E9007D
:103D20008FEF9091E800815095FD06C095ED9A9532
:103D3000F1F700008111F5CF8091E80085FFEACF0F
:103D400050E040E068E070E0CE010E9431208091B8
:103D5000E8008E778093E80080E2FE01A1E5B2E002
:103D600001900D928A95E1F7D5CF80917C02811167
:103D700009C00E94C1210E941E228091E20084603D
:103D80008093E200089510927C02089508950895AA
:103D90000C94A31942E061EC81E00E943F2142E0D3
:103DA00061EC82E00E943F2142E061EC83E00E94EE
:103DB0003F2142E261EC84E00C943F2180917F023C
:103DC000833009F455C030F4813071F1823009F448
:103DD00091C008958A3009F47DC08B3009F463C026
:103DE000893009F044C080917E02813209F03FC0E1
:103DF0008091820290918302009711F00397B9F5A8
:103E00008091E800877F8093E8008091E80082FF3E
:103E10002AC08091F100809371028091E8008B7735
:103E20008093E8000C94732180917E02813AF9F42A
:103E30008091E800877F8093E800809182029091D2
:103E40008302892B61F460E281E592E070E00E94D8
:103E500080208091E8008B778093E800089560E0EF
:103E600090E080E0F3CF80917D028111CECF089564
:103E700080917E02813AD9F78091820290918302EB
:103E8000892BA9F78091E800877F8093E8008091D3
:103E9000E80080FFFCCF809112018093F1008091B7
:103EA000E8008E77BDCF80917E02813201F780914C
:103EB000820290918302892BD1F68091E800877F5E
:103EC0008093E8000E947321809180028093120108
:103ED0000C94201280917E02813249F68091E80094
:103EE000877F8093E8000E947321809181028093F4
:103EF0007202089580917E02813A09F0B8CF8091D4
:103F0000E800877F8093E8008091E80080FFFCCF85
:103F100080917202C2CF84B7877F84BF0FB6F894B6
:103F2000A895809160008861809360001092600085
:103F30000FBE80E880936100109261000E94790DAD
:103F40000E94C1210E941E228091E2008460809321
:103F5000E20078940E94A0240E947B0D88E091E00A
:103F60000E94250D80917D02853019F00E94810DFF
:103F7000F9CF0E945E1980917B02882399F30E94F9
:103F80008C19882379F30E941B20ECCF292F33272B
:103F90002330310579F158F421303105F1F0223028
:103FA000310519F190E080E030E020E01AC02132C4
:103FB000310599F122323105A9F7643098F770E0A4
:103FC000FB01EE0FFF1FEF5CFE4F20813181635D2F
:103FD0007E4FFB01808190E004C082E190E029E601
:103FE0003EE0FA013183208308958DE690E02CEFC6
:103FF0003DE0F7CF99278130910561F028F00297D5
:1040000089F6ECECFDE002C0E8EFFDE0849190E081
:104010009F01E7CFE0EEFDE0F9CF643008F0C2CFBA
:10402000E62FF0E0EE0FFF1FE75CFE4F20813181AD
:1040300089E090E0D6CF80E189BD82E189BD09B4F5
:1040400000FEFDCF8091D8008F7D8093D8008091B5
:10405000E00082608093E0008091E00081FDFCCF71
:104060000895AF92BF92CF92DF92FF920F931F936A
:10407000CF93DF936C01EB018A010E949221F82E0D
:10408000811123C00115110539F0F801808191815A
:10409000C81BD90BC80ED91EB12CA12C2097A9F092
:1040A0008091E80085FD22C08091E8008E778093A2
:1040B000E80001151105A1F0F80180819181A80E99
:1040C000B91EB182A08285E0F82E8F2DDF91CF91AD
:1040D0001F910F91FF90DF90CF90BF90AF90089508
:1040E0000E9492218823D1F2F82EEFCFF601819120
:1040F0006F018093F1002197FFEFAF1ABF0ACECF77
:10410000FC01809184029091850286179707A0F0A8
:104110006115710529F49091E8009E779093E8006D
:1041200090E06115710551F4911108C08091E8008B
:1041300082FF35C080E00895BC01F2CF80917D02FE
:104140008823C9F18530C9F18091E80083FD31C031
:104150008091E80082FDEACF8091E80080FFE1CF06
:104160002091F3008091F200322F282F6115710504
:1041700019F02830310558F091E02830310509F068
:1041800090E02091E8002E772093E800CACF81913B
:104190008093F100615071092F5F3F4FE7CF80910D
:1041A0007D02882341F0853041F08091E80083FF53
:1041B000BDCF81E0089582E0089583E00895FC0179
:1041C000809184029091850286179707A0F061156F
:1041D000710529F48091E8008E778093E80090E0E3
:1041E0006115710551F4911108C08091E80082FFBA
:1041F00036C080E00895BC01F2CF80917D02882313
:10420000D1F18530D1F18091E80083FD32C08091F9
:10421000E80082FDEACF8091E80080FFE1CF2091A5
:10422000F3008091F200322F282F6115710519F0EB
:104230002830310558F091E02830310509F090E040
:104240008091E8008E778093E800CACF84918093B4
:10425000F1003196615071092F5F3F4FE6CF809199
:104260007D02882341F0853041F08091E80083FF92
:10427000BCCF81E0089582E0089583E00895982FEF
:10428000973028F08F708093E90081E00895909333
:10429000E900242F762F50E0981731F07091EC0050
:1042A0002091ED005091F00021FD02C09F5FE8CF0A
:1042B0003091EB003E7F3093EB003091ED003D7F7D
:1042C0003093ED003091EB0031603093EB00709350
:1042D000EC002093ED005093F0002091EE0027FDBC
:1042E000E5CF80E0089580917E0287FF13C0809122
:1042F000E80082FF06C08091E8008B778093E80099
:1043000004C080917D028111F2CF089580917D02D9
:104310008823D9F38091E80080FFF8CF8091E800EE
:104320008E77ECCF2091E4003091E50085E6909106
:10433000EC0090FF06C09091E80090FF06C080E07E
:1043400008959091E80092FDFACF90917D02992313
:1043500091F0953091F09091EB0095FD10C0409157
:10436000E4005091E5002417350709F381509A01C4
:10437000F1F684E0089582E0089583E0089581E0F5
:1043800008950E942F220E943722E0EEF0E0808103
:1043900081608083E8EDF0E080818F77808319BCB5
:1043A000A7EDB0E08C918E7F8C9380818F7E80838F
:1043B00010927C0208950F931F93CF93DF930E9476
:1043C0002F220E943722C8EDD0E088818F77888322
:1043D00088818068888388818F7D888319BC10924A
:1043E0007D021092790210927B0210927A0200EE06
:1043F00010E0F80180818B7F8083888181608883D1
:1044000042E060E080E00E943F21E1EEF0E0808148
:104410008E7F8083E2EEF0E0808181608083808106
:1044200088608083F80180818E7F808388818061AD
:104430008883DF91CF911F910F910895E8EDF0E00F
:1044400080818F7E8083E7EDF0E0808181608083D2
:1044500084E082BF81E080937C020C94DB21E8ED54
:10446000F0E080818E7F80831092E20008951092A8
:10447000DA001092E10008951F920F920FB60F928A
:1044800011242F933F934F935F936F937F938F9359
:104490009F93AF93BF93EF93FF938091E10082FFCF
:1044A0000BC08091E20082FF07C08091E1008B7F0A
:1044B0008093E1000E949F248091DA0080FF19C060
:1044C0008091D80080FF15C08091DA008E7F8093A4
:1044D000DA008091D90080FF94C080E189BD82E13B
:1044E00089BD09B400FEFDCF81E080937D020E946A
:1044F000B51E8091E10080FF19C08091E20080FF2D
:1045000015C08091E2008E7F8093E2008091E200EE
:1045100080618093E2008091D80080628093D8000F
:1045200019BC85E080937D020E94C71E8091E10046
:1045300084FF29C08091E20084FF25C080E189BD0D
:1045400082E189BD09B400FEFDCF8091D8008F7D46
:104550008093D8008091E1008F7E8093E10080916C
:10456000E2008F7E8093E2008091E2008160809380
:10457000E20080917902882309F449C084E08093A5
:104580007D020E94C81E8091E10083FF29C08091B6
:10459000E20083FF25C08091E100877F8093E100E6
:1045A00082E080937D02109279028091E1008E7FFB
:1045B0008093E1008091E2008E7F8093E200809101
:1045C000E20080618093E20042E060E080E00E94CF
:1045D0003F218091F00088608093F0000E94C61E09
:1045E000FF91EF91BF91AF919F918F917F916F91CB
:1045F0005F914F913F912F910F900FBE0F901F90A1
:10460000189519BC10927D020E94C31E72CF809132
:10461000E30087FD02C081E0B2CF83E0B0CF1F92FC
:104620000F920FB60F9211242F933F934F935F93E6
:104630006F937F938F939F93AF93BF93CF93EF939A
:10464000FF93C091E900CF708091EC001092E900D7
:104650008091F000877F8093F00078940E944B2334
:104660001092E9008091F00088608093F000C09380
:10467000E900FF91EF91CF91BF91AF919F918F9101
:104680007F916F915F914F913F912F910F900FBE4E
:104690000F901F9018951F93CF93DF93CDB7DEB780
:1046A000AA970FB6F894DEBF0FBECDBFEEE7F2E0DB
:1046B0008091F100819322E0E638F207C9F70E9469
:1046C000DE1E8091E80083FF42C080917E029091BF
:1046D0007F029A3008F03BC0E92FF0E0EE58FC4D25
:1046E0000C9401267C23A023A723A023A723FB232C
:1046F0001D24A72372247F24803879F0823839F56D
:10470000809182028F708093E9008091EB0085FB9D
:10471000882780F91092E90006C080917A02909172
:104720007B02911182609091E800977F9093E8005E
:104730008093F1001092F1008091E8008E772DC0F7
:10474000282F2D7F21F48823D1F0823059F18091D8
:10475000E80083FF0AC08091E800877F8093E8002B
:104760008091EB0080628093EB00AA960FB6F894DC
:10477000DEBF0FBECDBFDF91CF911F910895809115
:104780008002813021F7933009F080E080937B0232
:104790001092E9008091E800877F8093E8000E94F2
:1047A0007321D5CF809180028111F2CF8091820256
:1047B0008F7069F28093E9002091EB0020FFE8CF31
:1047C000933031F48091EB0080628093EB00E0CF76
:1047D0009091EB0090619093EB0021E030E001C0FC
:1047E000220F8A95EAF72093EA001092EA0080915E
:1047F000EB008860EACF8111AACF109180021F7769
:104800008091E3008078812B8093E3008091E80021
:10481000877F8093E8000E9473218091E80080FFE9
:10482000FCCF8091E30080688093E30083E0111166
:1048300001C082E080937D028ACF8058823008F0E8
:1048400086CF80918002909181028C3D23E0920777
:10485000A1F583E08A838AE289834FB7F894DE0169
:10486000139620E03EE051E2E32FF0E05093570032
:10487000E49120FF03C0E295EF703F5FEF708E2F51
:1048800090E0EA30C0F0C7968D939D932F5F24315E
:1048900059F74FBF8091E800877F8093E8006AE274
:1048A00070E0CE0101960E9480208091E8008B7715
:1048B0008093E8004CCFC096E7CFAE014F5F5F4FCB
:1048C000609182020E94C61FBC01892B09F43FCF70
:1048D0009091E800977F9093E80089819A810E94E7
:1048E000DF20E3CF803809F032CF8091E800877F66
:1048F0008093E800809179028093F1001DCF8111AF
:1049000026CF90918002923008F021CF8091E8006C
:10491000877F8093E800909379020E9473218091B1
:104920007902882331F084E080937D020E94CA1EC0
:104930000ECF8091E30087FDF6CF81E0F5CF08959B
:10494000CF9380917D02882399F0C091E900CF70C8
:104950008091EC0080FD0EC080E0C82B1092E90031
:104960008091E80083FD0E944B23CF70C093E90043
:10497000CF91089580E8F1CF0E94C3246894B111CB
:104980000C94522508950E94372588F09F5798F07F
:10499000B92F9927B751B0F0E1F0660F771F881F44
:1049A000991F1AF0BA95C9F714C0B13091F00E945E
:1049B0005125B1E008950C945125672F782F882751
:1049C000B85F39F0B93FCCF3869577956795B39585
:1049D000D9F73EF490958095709561957F4F8F4FF4
:1049E0009F4F0895E89409C097FB3EF490958095F9
:1049F000709561957F4F8F4F9F4F9923A9F0F92FA5
:104A000096E9BB279395F695879577956795B79522
:104A1000F111F8CFFAF4BB0F11F460FF1BC06F5F08
:104A20007F4F8F4F9F4F16C0882311F096E911C01A
:104A3000772321F09EE8872F762F05C0662371F03B
:104A400096E8862F70E060E02AF09A95660F771F4F
:104A5000881FDAF7880F9695879597F9089557FD7F
:104A60009058440F551F59F05F3F71F04795880FDC
:104A700097FB991F61F09F3F79F087950895121673
:104A800013061406551FF2CF4695F1DF08C016161F
:104A900017061806991FF1CF8695710561050894D0
:104AA0000895E894BB2766277727CB0197F90895E7
:104AB0000E946B250C94DC250E94CE2538F00E94C4
:104AC000D52520F0952311F00C94C5250C94CB2509
:104AD00011240C9452250E942F2570F3959FC1F349
:104AE000950F50E0551F629FF001729FBB27F00D9C
:104AF000B11D639FAA27F00DB11DAA1F649F6627F1
:104B0000B00DA11D661F829F2227B00DA11D621F3F
:104B1000739FB00DA11D621F839FA00D611D221FF9
:104B2000749F3327A00D611D231F849F600D211DDD
:104B3000822F762F6A2F11249F5750409AF0F1F060
:104B400088234AF0EE0FFF1FBB1F661F771F881FC9
:104B500091505040A9F79E3F510580F00C94C52517
:104B60000C9452255F3FE4F3983ED4F386957795F5
:104B70006795B795F795E7959F5FC1F7FE2B880F6F
:104B8000911D9695879597F9089597F99F6780E805
:104B900070E060E008959FEF80EC089500240A948F
:104BA0001616170618060906089500240A94121608
:104BB0001306140605060895092E0394000C11F43B
:104BC000882352F0BB0F40F4BF2B11F460FF04C0E8
:104BD0006F5F7F4F8F4F9F4F089597FB072E16F4FF
:104BE000009407D077FD09D00E94072607FC05D066
:104BF0003EF4909581959F4F0895709561957F4FF4
:104C00000895EE0FFF1F0590F491E02D0994AA1B63
:104C1000BB1B51E107C0AA1FBB1FA617B70710F0A7
:104C2000A61BB70B881F991F5A95A9F780959095D9
:104C3000BC01CD010895F999FECF92BD81BDF89ACE
:104C4000992780B50895A8E1B0E042E050E00C94C7
:104C50004326262FF999FECF92BD81BDF89A019780
:104C600000B4021639F01FBA20BD0FB6F894FA9AB4
:104C7000F99A0FBE08950196272F0E942A260C94B8
:104C80002926DC01CB01FC01F999FECF06C0F2BD5B
:104C9000E1BDF89A319600B40D9241505040B8F7FA
:064CA0000895F894FFCF17
:104CA60023022808140A321ED31D651E401E0A1E42
:104CB600D61D01353637606162636465666790911B
:104CC600929394959697C0C13031323334404D3625
:104CD60039370FEA0EB40E7B0E0E0E270E400E5914
:024CE6000E00BE
:00000001FF
